{
  "_format": "hh-sol-artifact-1",
  "contractName": "Cert",
  "sourceName": "contracts/Cert.sol",
  "abi": [
    {
      "inputs": [],
      "stateMutability": "nonpayable",
      "type": "constructor"
    },
    {
      "anonymous": false,
      "inputs": [
        {
          "indexed": true,
          "internalType": "address",
          "name": "owner",
          "type": "address"
        },
        {
          "indexed": true,
          "internalType": "address",
          "name": "approved",
          "type": "address"
        },
        {
          "indexed": true,
          "internalType": "uint256",
          "name": "tokenId",
          "type": "uint256"
        }
      ],
      "name": "Approval",
      "type": "event"
    },
    {
      "anonymous": false,
      "inputs": [
        {
          "indexed": true,
          "internalType": "address",
          "name": "owner",
          "type": "address"
        },
        {
          "indexed": true,
          "internalType": "address",
          "name": "operator",
          "type": "address"
        },
        {
          "indexed": false,
          "internalType": "bool",
          "name": "approved",
          "type": "bool"
        }
      ],
      "name": "ApprovalForAll",
      "type": "event"
    },
    {
      "anonymous": false,
      "inputs": [
        {
          "indexed": true,
          "internalType": "address",
          "name": "from",
          "type": "address"
        },
        {
          "indexed": true,
          "internalType": "address",
          "name": "to",
          "type": "address"
        },
        {
          "indexed": true,
          "internalType": "uint256",
          "name": "tokenId",
          "type": "uint256"
        }
      ],
      "name": "Transfer",
      "type": "event"
    },
    {
      "inputs": [
        {
          "internalType": "address",
          "name": "to",
          "type": "address"
        },
        {
          "internalType": "uint256",
          "name": "tokenId",
          "type": "uint256"
        }
      ],
      "name": "approve",
      "outputs": [],
      "stateMutability": "nonpayable",
      "type": "function"
    },
    {
      "inputs": [
        {
          "internalType": "address",
          "name": "student",
          "type": "address"
        },
        {
          "internalType": "string",
          "name": "tokenURI",
          "type": "string"
        }
      ],
      "name": "awardCertificate",
      "outputs": [
        {
          "internalType": "uint256",
          "name": "",
          "type": "uint256"
        }
      ],
      "stateMutability": "nonpayable",
      "type": "function"
    },
    {
      "inputs": [
        {
          "internalType": "address",
          "name": "owner",
          "type": "address"
        }
      ],
      "name": "balanceOf",
      "outputs": [
        {
          "internalType": "uint256",
          "name": "",
          "type": "uint256"
        }
      ],
      "stateMutability": "view",
      "type": "function"
    },
    {
      "inputs": [
        {
          "internalType": "uint256",
          "name": "tokenId",
          "type": "uint256"
        }
      ],
      "name": "getApproved",
      "outputs": [
        {
          "internalType": "address",
          "name": "",
          "type": "address"
        }
      ],
      "stateMutability": "view",
      "type": "function"
    },
    {
      "inputs": [
        {
          "internalType": "string",
          "name": "tokenURI",
          "type": "string"
        }
      ],
      "name": "getTokenId",
      "outputs": [
        {
          "internalType": "uint256",
          "name": "",
          "type": "uint256"
        }
      ],
      "stateMutability": "view",
      "type": "function"
    },
    {
      "inputs": [
        {
          "internalType": "uint256",
          "name": "tokenId",
          "type": "uint256"
        }
      ],
      "name": "getTokenURI",
      "outputs": [
        {
          "internalType": "string",
          "name": "",
          "type": "string"
        }
      ],
      "stateMutability": "view",
      "type": "function"
    },
    {
      "inputs": [
        {
          "internalType": "address",
          "name": "owner",
          "type": "address"
        },
        {
          "internalType": "address",
          "name": "operator",
          "type": "address"
        }
      ],
      "name": "isApprovedForAll",
      "outputs": [
        {
          "internalType": "bool",
          "name": "",
          "type": "bool"
        }
      ],
      "stateMutability": "view",
      "type": "function"
    },
    {
      "inputs": [],
      "name": "name",
      "outputs": [
        {
          "internalType": "string",
          "name": "",
          "type": "string"
        }
      ],
      "stateMutability": "view",
      "type": "function"
    },
    {
      "inputs": [],
      "name": "owner",
      "outputs": [
        {
          "internalType": "address",
          "name": "",
          "type": "address"
        }
      ],
      "stateMutability": "view",
      "type": "function"
    },
    {
      "inputs": [
        {
          "internalType": "uint256",
          "name": "tokenId",
          "type": "uint256"
        }
      ],
      "name": "ownerOf",
      "outputs": [
        {
          "internalType": "address",
          "name": "",
          "type": "address"
        }
      ],
      "stateMutability": "view",
      "type": "function"
    },
    {
      "inputs": [
        {
          "internalType": "address",
          "name": "from",
          "type": "address"
        },
        {
          "internalType": "address",
          "name": "to",
          "type": "address"
        },
        {
          "internalType": "uint256",
          "name": "tokenId",
          "type": "uint256"
        }
      ],
      "name": "safeTransferFrom",
      "outputs": [],
      "stateMutability": "nonpayable",
      "type": "function"
    },
    {
      "inputs": [
        {
          "internalType": "address",
          "name": "from",
          "type": "address"
        },
        {
          "internalType": "address",
          "name": "to",
          "type": "address"
        },
        {
          "internalType": "uint256",
          "name": "tokenId",
          "type": "uint256"
        },
        {
          "internalType": "bytes",
          "name": "data",
          "type": "bytes"
        }
      ],
      "name": "safeTransferFrom",
      "outputs": [],
      "stateMutability": "nonpayable",
      "type": "function"
    },
    {
      "inputs": [
        {
          "internalType": "address",
          "name": "operator",
          "type": "address"
        },
        {
          "internalType": "bool",
          "name": "approved",
          "type": "bool"
        }
      ],
      "name": "setApprovalForAll",
      "outputs": [],
      "stateMutability": "nonpayable",
      "type": "function"
    },
    {
      "inputs": [
        {
          "internalType": "bytes4",
          "name": "interfaceId",
          "type": "bytes4"
        }
      ],
      "name": "supportsInterface",
      "outputs": [
        {
          "internalType": "bool",
          "name": "",
          "type": "bool"
        }
      ],
      "stateMutability": "view",
      "type": "function"
    },
    {
      "inputs": [],
      "name": "symbol",
      "outputs": [
        {
          "internalType": "string",
          "name": "",
          "type": "string"
        }
      ],
      "stateMutability": "view",
      "type": "function"
    },
    {
      "inputs": [
        {
          "internalType": "uint256",
          "name": "tokenId",
          "type": "uint256"
        }
      ],
      "name": "tokenURI",
      "outputs": [
        {
          "internalType": "string",
          "name": "",
          "type": "string"
        }
      ],
      "stateMutability": "view",
      "type": "function"
    },
    {
      "inputs": [
        {
          "internalType": "address",
          "name": "from",
          "type": "address"
        },
        {
          "internalType": "address",
          "name": "to",
          "type": "address"
        },
        {
          "internalType": "uint256",
          "name": "tokenId",
          "type": "uint256"
        }
      ],
      "name": "transferFrom",
      "outputs": [],
      "stateMutability": "nonpayable",
      "type": "function"
    }
  ],
  "bytecode": "0x608060405234801561001057600080fd5b506040518060400160405280600481526020017f43657274000000000000000000000000000000000000000000000000000000008152506040518060400160405280600381526020017f4345520000000000000000000000000000000000000000000000000000000000815250816000908161008c9190610335565b50806001908161009c9190610335565b50505033600860006101000a81548173ffffffffffffffffffffffffffffffffffffffff021916908373ffffffffffffffffffffffffffffffffffffffff160217905550610407565b600081519050919050565b7f4e487b7100000000000000000000000000000000000000000000000000000000600052604160045260246000fd5b7f4e487b7100000000000000000000000000000000000000000000000000000000600052602260045260246000fd5b6000600282049050600182168061016657607f821691505b6020821081036101795761017861011f565b5b50919050565b60008190508160005260206000209050919050565b60006020601f8301049050919050565b600082821b905092915050565b6000600883026101e17fffffffffffffffffffffffffffffffffffffffffffffffffffffffffffffffff826101a4565b6101eb86836101a4565b95508019841693508086168417925050509392505050565b6000819050919050565b6000819050919050565b600061023261022d61022884610203565b61020d565b610203565b9050919050565b6000819050919050565b61024c83610217565b61026061025882610239565b8484546101b1565b825550505050565b600090565b610275610268565b610280818484610243565b505050565b5b818110156102a45761029960008261026d565b600181019050610286565b5050565b601f8211156102e9576102ba8161017f565b6102c384610194565b810160208510156102d2578190505b6102e66102de85610194565b830182610285565b50505b505050565b600082821c905092915050565b600061030c600019846008026102ee565b1980831691505092915050565b600061032583836102fb565b9150826002028217905092915050565b61033e826100e5565b67ffffffffffffffff811115610357576103566100f0565b5b610361825461014e565b61036c8282856102a8565b600060209050601f83116001811461039f576000841561038d578287015190505b6103978582610319565b8655506103ff565b601f1984166103ad8661017f565b60005b828110156103d5578489015182556001820191506020850194506020810190506103b0565b868310156103f257848901516103ee601f8916826102fb565b8355505b6001600288020188555050505b505050505050565b612f63806104166000396000f3fe608060405234801561001057600080fd5b506004361061010b5760003560e01c80636352211e116100a257806395d89b411161007157806395d89b41146102f0578063a22cb4651461030e578063b88d4fde1461032a578063c87b56dd14610346578063e985e9c5146103765761010b565b80636352211e1461024257806370a0823114610272578063849c9b45146102a25780638da5cb5b146102d25761010b565b80631e7663bc116100de5780631e7663bc146101aa57806323b872dd146101da5780633bb3a24d146101f657806342842e0e146102265761010b565b806301ffc9a71461011057806306fdde0314610140578063081812fc1461015e578063095ea7b31461018e575b600080fd5b61012a60048036038101906101259190611c5d565b6103a6565b6040516101379190611ca5565b60405180910390f35b610148610488565b6040516101559190611d50565b60405180910390f35b61017860048036038101906101739190611da8565b61051a565b6040516101859190611e16565b60405180910390f35b6101a860048036038101906101a39190611e5d565b610560565b005b6101c460048036038101906101bf9190611fd2565b610677565b6040516101d1919061202a565b60405180910390f35b6101f460048036038101906101ef9190612045565b61069f565b005b610210600480360381019061020b9190611da8565b6106ff565b60405161021d9190611d50565b60405180910390f35b610240600480360381019061023b9190612045565b61075b565b005b61025c60048036038101906102579190611da8565b61077b565b6040516102699190611e16565b60405180910390f35b61028c60048036038101906102879190612098565b610801565b604051610299919061202a565b60405180910390f35b6102bc60048036038101906102b791906120c5565b6108b8565b6040516102c9919061202a565b60405180910390f35b6102da6109ad565b6040516102e79190611e16565b60405180910390f35b6102f86109d3565b6040516103059190611d50565b60405180910390f35b6103286004803603810190610323919061214d565b610a65565b005b610344600480360381019061033f919061222e565b610a7b565b005b610360600480360381019061035b9190611da8565b610add565b60405161036d9190611d50565b60405180910390f35b610390600480360381019061038b91906122b1565b610bef565b60405161039d9190611ca5565b60405180910390f35b60007f80ac58cd000000000000000000000000000000000000000000000000000000007bffffffffffffffffffffffffffffffffffffffffffffffffffffffff1916827bffffffffffffffffffffffffffffffffffffffffffffffffffffffff1916148061047157507f5b5e139f000000000000000000000000000000000000000000000000000000007bffffffffffffffffffffffffffffffffffffffffffffffffffffffff1916827bffffffffffffffffffffffffffffffffffffffffffffffffffffffff1916145b80610481575061048082610c83565b5b9050919050565b60606000805461049790612320565b80601f01602080910402602001604051908101604052809291908181526020018280546104c390612320565b80156105105780601f106104e557610100808354040283529160200191610510565b820191906000526020600020905b8154815290600101906020018083116104f357829003601f168201915b5050505050905090565b600061052582610ced565b6004600083815260200190815260200160002060009054906101000a900473ffffffffffffffffffffffffffffffffffffffff169050919050565b600061056b8261077b565b90508073ffffffffffffffffffffffffffffffffffffffff168373ffffffffffffffffffffffffffffffffffffffff16036105db576040517f08c379a00000000000000000000000000000000000000000000000000000000081526004016105d2906123c3565b60405180910390fd5b8073ffffffffffffffffffffffffffffffffffffffff166105fa610d38565b73ffffffffffffffffffffffffffffffffffffffff161480610629575061062881610623610d38565b610bef565b5b610668576040517f08c379a000000000000000000000000000000000000000000000000000000000815260040161065f90612455565b60405180910390fd5b6106728383610d40565b505050565b6000600a8260405161068991906124b1565b9081526020016040518091039020549050919050565b6106b06106aa610d38565b82610df9565b6106ef576040517f08c379a00000000000000000000000000000000000000000000000000000000081526004016106e69061253a565b60405180910390fd5b6106fa838383610e8e565b505050565b6060600061070c83610add565b90506000815111610752576040517f08c379a0000000000000000000000000000000000000000000000000000000008152600401610749906125cc565b60405180910390fd5b80915050919050565b61077683838360405180602001604052806000815250610a7b565b505050565b60008061078783611187565b9050600073ffffffffffffffffffffffffffffffffffffffff168173ffffffffffffffffffffffffffffffffffffffff16036107f8576040517f08c379a00000000000000000000000000000000000000000000000000000000081526004016107ef90612638565b60405180910390fd5b80915050919050565b60008073ffffffffffffffffffffffffffffffffffffffff168273ffffffffffffffffffffffffffffffffffffffff1603610871576040517f08c379a0000000000000000000000000000000000000000000000000000000008152600401610868906126ca565b60405180910390fd5b600360008373ffffffffffffffffffffffffffffffffffffffff1673ffffffffffffffffffffffffffffffffffffffff168152602001908152602001600020549050919050565b60008073ffffffffffffffffffffffffffffffffffffffff168373ffffffffffffffffffffffffffffffffffffffff1603610928576040517f08c379a000000000000000000000000000000000000000000000000000000000815260040161091f90612736565b60405180910390fd5b600061093460076111c4565b905061094084826111d2565b61094a81846113ef565b60006009600083815260200190815260200160002060006101000a81548160ff021916908315150217905550610980600761145c565b80600a8460405161099191906124b1565b9081526020016040518091039020819055508091505092915050565b600860009054906101000a900473ffffffffffffffffffffffffffffffffffffffff1681565b6060600180546109e290612320565b80601f0160208091040260200160405190810160405280929190818152602001828054610a0e90612320565b8015610a5b5780601f10610a3057610100808354040283529160200191610a5b565b820191906000526020600020905b815481529060010190602001808311610a3e57829003601f168201915b5050505050905090565b610a77610a70610d38565b8383611472565b5050565b610a8c610a86610d38565b83610df9565b610acb576040517f08c379a0000000000000000000000000000000000000000000000000000000008152600401610ac29061253a565b60405180910390fd5b610ad7848484846115de565b50505050565b6060610ae882610ced565b6000600660008481526020019081526020016000208054610b0890612320565b80601f0160208091040260200160405190810160405280929190818152602001828054610b3490612320565b8015610b815780601f10610b5657610100808354040283529160200191610b81565b820191906000526020600020905b815481529060010190602001808311610b6457829003601f168201915b505050505090506000610b9261163a565b90506000815103610ba7578192505050610bea565b600082511115610bdc578082604051602001610bc4929190612756565b60405160208183030381529060405292505050610bea565b610be584611651565b925050505b919050565b6000600560008473ffffffffffffffffffffffffffffffffffffffff1673ffffffffffffffffffffffffffffffffffffffff16815260200190815260200160002060008373ffffffffffffffffffffffffffffffffffffffff1673ffffffffffffffffffffffffffffffffffffffff16815260200190815260200160002060009054906101000a900460ff16905092915050565b60007f01ffc9a7000000000000000000000000000000000000000000000000000000007bffffffffffffffffffffffffffffffffffffffffffffffffffffffff1916827bffffffffffffffffffffffffffffffffffffffffffffffffffffffff1916149050919050565b610cf6816116b9565b610d35576040517f08c379a0000000000000000000000000000000000000000000000000000000008152600401610d2c90612638565b60405180910390fd5b50565b600033905090565b816004600083815260200190815260200160002060006101000a81548173ffffffffffffffffffffffffffffffffffffffff021916908373ffffffffffffffffffffffffffffffffffffffff160217905550808273ffffffffffffffffffffffffffffffffffffffff16610db38361077b565b73ffffffffffffffffffffffffffffffffffffffff167f8c5be1e5ebec7d5bd14f71427d1e84f3dd0314c0f7b2291e5b200ac8c7c3b92560405160405180910390a45050565b600080610e058361077b565b90508073ffffffffffffffffffffffffffffffffffffffff168473ffffffffffffffffffffffffffffffffffffffff161480610e475750610e468185610bef565b5b80610e8557508373ffffffffffffffffffffffffffffffffffffffff16610e6d8461051a565b73ffffffffffffffffffffffffffffffffffffffff16145b91505092915050565b8273ffffffffffffffffffffffffffffffffffffffff16610eae8261077b565b73ffffffffffffffffffffffffffffffffffffffff1614610f04576040517f08c379a0000000000000000000000000000000000000000000000000000000008152600401610efb906127ec565b60405180910390fd5b600073ffffffffffffffffffffffffffffffffffffffff168273ffffffffffffffffffffffffffffffffffffffff1603610f73576040517f08c379a0000000000000000000000000000000000000000000000000000000008152600401610f6a9061287e565b60405180910390fd5b610f8083838360016116fa565b8273ffffffffffffffffffffffffffffffffffffffff16610fa08261077b565b73ffffffffffffffffffffffffffffffffffffffff1614610ff6576040517f08c379a0000000000000000000000000000000000000000000000000000000008152600401610fed906127ec565b60405180910390fd5b6004600082815260200190815260200160002060006101000a81549073ffffffffffffffffffffffffffffffffffffffff02191690556001600360008573ffffffffffffffffffffffffffffffffffffffff1673ffffffffffffffffffffffffffffffffffffffff168152602001908152602001600020600082825403925050819055506001600360008473ffffffffffffffffffffffffffffffffffffffff1673ffffffffffffffffffffffffffffffffffffffff16815260200190815260200160002060008282540192505081905550816002600083815260200190815260200160002060006101000a81548173ffffffffffffffffffffffffffffffffffffffff021916908373ffffffffffffffffffffffffffffffffffffffff160217905550808273ffffffffffffffffffffffffffffffffffffffff168473ffffffffffffffffffffffffffffffffffffffff167fddf252ad1be2c89b69c2b068fc378daa952ba7f163c4a11628f55a4df523b3ef60405160405180910390a46111828383836001611820565b505050565b60006002600083815260200190815260200160002060009054906101000a900473ffffffffffffffffffffffffffffffffffffffff169050919050565b600081600001549050919050565b600073ffffffffffffffffffffffffffffffffffffffff168273ffffffffffffffffffffffffffffffffffffffff1603611241576040517f08c379a0000000000000000000000000000000000000000000000000000000008152600401611238906128ea565b60405180910390fd5b61124a816116b9565b1561128a576040517f08c379a000000000000000000000000000000000000000000000000000000000815260040161128190612956565b60405180910390fd5b6112986000838360016116fa565b6112a1816116b9565b156112e1576040517f08c379a00000000000000000000000000000000000000000000000000000000081526004016112d890612956565b60405180910390fd5b6001600360008473ffffffffffffffffffffffffffffffffffffffff1673ffffffffffffffffffffffffffffffffffffffff16815260200190815260200160002060008282540192505081905550816002600083815260200190815260200160002060006101000a81548173ffffffffffffffffffffffffffffffffffffffff021916908373ffffffffffffffffffffffffffffffffffffffff160217905550808273ffffffffffffffffffffffffffffffffffffffff16600073ffffffffffffffffffffffffffffffffffffffff167fddf252ad1be2c89b69c2b068fc378daa952ba7f163c4a11628f55a4df523b3ef60405160405180910390a46113eb600083836001611820565b5050565b6113f8826116b9565b611437576040517f08c379a000000000000000000000000000000000000000000000000000000000815260040161142e906129e8565b60405180910390fd5b806006600084815260200190815260200160002090816114579190612bb4565b505050565b6001816000016000828254019250508190555050565b8173ffffffffffffffffffffffffffffffffffffffff168373ffffffffffffffffffffffffffffffffffffffff16036114e0576040517f08c379a00000000000000000000000000000000000000000000000000000000081526004016114d790612cd2565b60405180910390fd5b80600560008573ffffffffffffffffffffffffffffffffffffffff1673ffffffffffffffffffffffffffffffffffffffff16815260200190815260200160002060008473ffffffffffffffffffffffffffffffffffffffff1673ffffffffffffffffffffffffffffffffffffffff16815260200190815260200160002060006101000a81548160ff0219169083151502179055508173ffffffffffffffffffffffffffffffffffffffff168373ffffffffffffffffffffffffffffffffffffffff167f17307eab39ab6107e8899845ad3d59bd9653f200f220920489ca2b5937696c31836040516115d19190611ca5565b60405180910390a3505050565b6115e9848484610e8e565b6115f584848484611826565b611634576040517f08c379a000000000000000000000000000000000000000000000000000000000815260040161162b90612d64565b60405180910390fd5b50505050565b606060405180602001604052806000815250905090565b606061165c82610ced565b600061166661163a565b9050600081511161168657604051806020016040528060008152506116b1565b80611690846119ad565b6040516020016116a1929190612756565b6040516020818303038152906040525b915050919050565b60008073ffffffffffffffffffffffffffffffffffffffff166116db83611187565b73ffffffffffffffffffffffffffffffffffffffff1614159050919050565b600181111561181a57600073ffffffffffffffffffffffffffffffffffffffff168473ffffffffffffffffffffffffffffffffffffffff161461178e5780600360008673ffffffffffffffffffffffffffffffffffffffff1673ffffffffffffffffffffffffffffffffffffffff16815260200190815260200160002060008282546117869190612db3565b925050819055505b600073ffffffffffffffffffffffffffffffffffffffff168373ffffffffffffffffffffffffffffffffffffffff16146118195780600360008573ffffffffffffffffffffffffffffffffffffffff1673ffffffffffffffffffffffffffffffffffffffff16815260200190815260200160002060008282546118119190612de7565b925050819055505b5b50505050565b50505050565b60006118478473ffffffffffffffffffffffffffffffffffffffff16611a7b565b156119a0578373ffffffffffffffffffffffffffffffffffffffff1663150b7a02611870610d38565b8786866040518563ffffffff1660e01b81526004016118929493929190612e70565b6020604051808303816000875af19250505080156118ce57506040513d601f19601f820116820180604052508101906118cb9190612ed1565b60015b611950573d80600081146118fe576040519150601f19603f3d011682016040523d82523d6000602084013e611903565b606091505b506000815103611948576040517f08c379a000000000000000000000000000000000000000000000000000000000815260040161193f90612d64565b60405180910390fd5b805181602001fd5b63150b7a0260e01b7bffffffffffffffffffffffffffffffffffffffffffffffffffffffff1916817bffffffffffffffffffffffffffffffffffffffffffffffffffffffff1916149150506119a5565b600190505b949350505050565b6060600060016119bc84611a9e565b01905060008167ffffffffffffffff8111156119db576119da611ea7565b5b6040519080825280601f01601f191660200182016040528015611a0d5781602001600182028036833780820191505090505b509050600082602001820190505b600115611a70578080600190039150507f3031323334353637383961626364656600000000000000000000000000000000600a86061a8153600a8581611a6457611a63612efe565b5b04945060008503611a1b575b819350505050919050565b6000808273ffffffffffffffffffffffffffffffffffffffff163b119050919050565b600080600090507a184f03e93ff9f4daa797ed6e38ed64bf6a1f0100000000000000008310611afc577a184f03e93ff9f4daa797ed6e38ed64bf6a1f0100000000000000008381611af257611af1612efe565b5b0492506040810190505b6d04ee2d6d415b85acef81000000008310611b39576d04ee2d6d415b85acef81000000008381611b2f57611b2e612efe565b5b0492506020810190505b662386f26fc100008310611b6857662386f26fc100008381611b5e57611b5d612efe565b5b0492506010810190505b6305f5e1008310611b91576305f5e1008381611b8757611b86612efe565b5b0492506008810190505b6127108310611bb6576127108381611bac57611bab612efe565b5b0492506004810190505b60648310611bd95760648381611bcf57611bce612efe565b5b0492506002810190505b600a8310611be8576001810190505b80915050919050565b6000604051905090565b600080fd5b600080fd5b60007fffffffff0000000000000000000000000000000000000000000000000000000082169050919050565b611c3a81611c05565b8114611c4557600080fd5b50565b600081359050611c5781611c31565b92915050565b600060208284031215611c7357611c72611bfb565b5b6000611c8184828501611c48565b91505092915050565b60008115159050919050565b611c9f81611c8a565b82525050565b6000602082019050611cba6000830184611c96565b92915050565b600081519050919050565b600082825260208201905092915050565b60005b83811015611cfa578082015181840152602081019050611cdf565b60008484015250505050565b6000601f19601f8301169050919050565b6000611d2282611cc0565b611d2c8185611ccb565b9350611d3c818560208601611cdc565b611d4581611d06565b840191505092915050565b60006020820190508181036000830152611d6a8184611d17565b905092915050565b6000819050919050565b611d8581611d72565b8114611d9057600080fd5b50565b600081359050611da281611d7c565b92915050565b600060208284031215611dbe57611dbd611bfb565b5b6000611dcc84828501611d93565b91505092915050565b600073ffffffffffffffffffffffffffffffffffffffff82169050919050565b6000611e0082611dd5565b9050919050565b611e1081611df5565b82525050565b6000602082019050611e2b6000830184611e07565b92915050565b611e3a81611df5565b8114611e4557600080fd5b50565b600081359050611e5781611e31565b92915050565b60008060408385031215611e7457611e73611bfb565b5b6000611e8285828601611e48565b9250506020611e9385828601611d93565b9150509250929050565b600080fd5b600080fd5b7f4e487b7100000000000000000000000000000000000000000000000000000000600052604160045260246000fd5b611edf82611d06565b810181811067ffffffffffffffff82111715611efe57611efd611ea7565b5b80604052505050565b6000611f11611bf1565b9050611f1d8282611ed6565b919050565b600067ffffffffffffffff821115611f3d57611f3c611ea7565b5b611f4682611d06565b9050602081019050919050565b82818337600083830152505050565b6000611f75611f7084611f22565b611f07565b905082815260208101848484011115611f9157611f90611ea2565b5b611f9c848285611f53565b509392505050565b600082601f830112611fb957611fb8611e9d565b5b8135611fc9848260208601611f62565b91505092915050565b600060208284031215611fe857611fe7611bfb565b5b600082013567ffffffffffffffff81111561200657612005611c00565b5b61201284828501611fa4565b91505092915050565b61202481611d72565b82525050565b600060208201905061203f600083018461201b565b92915050565b60008060006060848603121561205e5761205d611bfb565b5b600061206c86828701611e48565b935050602061207d86828701611e48565b925050604061208e86828701611d93565b9150509250925092565b6000602082840312156120ae576120ad611bfb565b5b60006120bc84828501611e48565b91505092915050565b600080604083850312156120dc576120db611bfb565b5b60006120ea85828601611e48565b925050602083013567ffffffffffffffff81111561210b5761210a611c00565b5b61211785828601611fa4565b9150509250929050565b61212a81611c8a565b811461213557600080fd5b50565b60008135905061214781612121565b92915050565b6000806040838503121561216457612163611bfb565b5b600061217285828601611e48565b925050602061218385828601612138565b9150509250929050565b600067ffffffffffffffff8211156121a8576121a7611ea7565b5b6121b182611d06565b9050602081019050919050565b60006121d16121cc8461218d565b611f07565b9050828152602081018484840111156121ed576121ec611ea2565b5b6121f8848285611f53565b509392505050565b600082601f83011261221557612214611e9d565b5b81356122258482602086016121be565b91505092915050565b6000806000806080858703121561224857612247611bfb565b5b600061225687828801611e48565b945050602061226787828801611e48565b935050604061227887828801611d93565b925050606085013567ffffffffffffffff81111561229957612298611c00565b5b6122a587828801612200565b91505092959194509250565b600080604083850312156122c8576122c7611bfb565b5b60006122d685828601611e48565b92505060206122e785828601611e48565b9150509250929050565b7f4e487b7100000000000000000000000000000000000000000000000000000000600052602260045260246000fd5b6000600282049050600182168061233857607f821691505b60208210810361234b5761234a6122f1565b5b50919050565b7f4552433732313a20617070726f76616c20746f2063757272656e74206f776e6560008201527f7200000000000000000000000000000000000000000000000000000000000000602082015250565b60006123ad602183611ccb565b91506123b882612351565b604082019050919050565b600060208201905081810360008301526123dc816123a0565b9050919050565b7f4552433732313a20617070726f76652063616c6c6572206973206e6f7420746f60008201527f6b656e206f776e6572206f7220617070726f76656420666f7220616c6c000000602082015250565b600061243f603d83611ccb565b915061244a826123e3565b604082019050919050565b6000602082019050818103600083015261246e81612432565b9050919050565b600081905092915050565b600061248b82611cc0565b6124958185612475565b93506124a5818560208601611cdc565b80840191505092915050565b60006124bd8284612480565b915081905092915050565b7f4552433732313a2063616c6c6572206973206e6f7420746f6b656e206f776e6560008201527f72206f7220617070726f76656400000000000000000000000000000000000000602082015250565b6000612524602d83611ccb565b915061252f826124c8565b604082019050919050565b6000602082019050818103600083015261255381612517565b9050919050565b7f546f6b656e20646f6573206e6f74206861766520616e206173736f636961746560008201527f6420555249000000000000000000000000000000000000000000000000000000602082015250565b60006125b6602583611ccb565b91506125c18261255a565b604082019050919050565b600060208201905081810360008301526125e5816125a9565b9050919050565b7f4552433732313a20696e76616c696420746f6b656e2049440000000000000000600082015250565b6000612622601883611ccb565b915061262d826125ec565b602082019050919050565b6000602082019050818103600083015261265181612615565b9050919050565b7f4552433732313a2061646472657373207a65726f206973206e6f74206120766160008201527f6c6964206f776e65720000000000000000000000000000000000000000000000602082015250565b60006126b4602983611ccb565b91506126bf82612658565b604082019050919050565b600060208201905081810360008301526126e3816126a7565b9050919050565b7f496e76616c69642073747564656e742061646472657373000000000000000000600082015250565b6000612720601783611ccb565b915061272b826126ea565b602082019050919050565b6000602082019050818103600083015261274f81612713565b9050919050565b60006127628285612480565b915061276e8284612480565b91508190509392505050565b7f4552433732313a207472616e736665722066726f6d20696e636f72726563742060008201527f6f776e6572000000000000000000000000000000000000000000000000000000602082015250565b60006127d6602583611ccb565b91506127e18261277a565b604082019050919050565b60006020820190508181036000830152612805816127c9565b9050919050565b7f4552433732313a207472616e7366657220746f20746865207a65726f2061646460008201527f7265737300000000000000000000000000000000000000000000000000000000602082015250565b6000612868602483611ccb565b91506128738261280c565b604082019050919050565b600060208201905081810360008301526128978161285b565b9050919050565b7f4552433732313a206d696e7420746f20746865207a65726f2061646472657373600082015250565b60006128d4602083611ccb565b91506128df8261289e565b602082019050919050565b60006020820190508181036000830152612903816128c7565b9050919050565b7f4552433732313a20746f6b656e20616c7265616479206d696e74656400000000600082015250565b6000612940601c83611ccb565b915061294b8261290a565b602082019050919050565b6000602082019050818103600083015261296f81612933565b9050919050565b7f45524337323155524953746f726167653a2055524920736574206f66206e6f6e60008201527f6578697374656e7420746f6b656e000000000000000000000000000000000000602082015250565b60006129d2602e83611ccb565b91506129dd82612976565b604082019050919050565b60006020820190508181036000830152612a01816129c5565b9050919050565b60008190508160005260206000209050919050565b60006020601f8301049050919050565b600082821b905092915050565b600060088302612a6a7fffffffffffffffffffffffffffffffffffffffffffffffffffffffffffffffff82612a2d565b612a748683612a2d565b95508019841693508086168417925050509392505050565b6000819050919050565b6000612ab1612aac612aa784611d72565b612a8c565b611d72565b9050919050565b6000819050919050565b612acb83612a96565b612adf612ad782612ab8565b848454612a3a565b825550505050565b600090565b612af4612ae7565b612aff818484612ac2565b505050565b5b81811015612b2357612b18600082612aec565b600181019050612b05565b5050565b601f821115612b6857612b3981612a08565b612b4284612a1d565b81016020851015612b51578190505b612b65612b5d85612a1d565b830182612b04565b50505b505050565b600082821c905092915050565b6000612b8b60001984600802612b6d565b1980831691505092915050565b6000612ba48383612b7a565b9150826002028217905092915050565b612bbd82611cc0565b67ffffffffffffffff811115612bd657612bd5611ea7565b5b612be08254612320565b612beb828285612b27565b600060209050601f831160018114612c1e5760008415612c0c578287015190505b612c168582612b98565b865550612c7e565b601f198416612c2c86612a08565b60005b82811015612c5457848901518255600182019150602085019450602081019050612c2f565b86831015612c715784890151612c6d601f891682612b7a565b8355505b6001600288020188555050505b505050505050565b7f4552433732313a20617070726f766520746f2063616c6c657200000000000000600082015250565b6000612cbc601983611ccb565b9150612cc782612c86565b602082019050919050565b60006020820190508181036000830152612ceb81612caf565b9050919050565b7f4552433732313a207472616e7366657220746f206e6f6e20455243373231526560008201527f63656976657220696d706c656d656e7465720000000000000000000000000000602082015250565b6000612d4e603283611ccb565b9150612d5982612cf2565b604082019050919050565b60006020820190508181036000830152612d7d81612d41565b9050919050565b7f4e487b7100000000000000000000000000000000000000000000000000000000600052601160045260246000fd5b6000612dbe82611d72565b9150612dc983611d72565b9250828203905081811115612de157612de0612d84565b5b92915050565b6000612df282611d72565b9150612dfd83611d72565b9250828201905080821115612e1557612e14612d84565b5b92915050565b600081519050919050565b600082825260208201905092915050565b6000612e4282612e1b565b612e4c8185612e26565b9350612e5c818560208601611cdc565b612e6581611d06565b840191505092915050565b6000608082019050612e856000830187611e07565b612e926020830186611e07565b612e9f604083018561201b565b8181036060830152612eb18184612e37565b905095945050505050565b600081519050612ecb81611c31565b92915050565b600060208284031215612ee757612ee6611bfb565b5b6000612ef584828501612ebc565b91505092915050565b7f4e487b7100000000000000000000000000000000000000000000000000000000600052601260045260246000fdfea2646970667358221220346d5327b37ad7e8133bd52df0a80a2a1a9b1c95bbf136df078d59ee474432f164736f6c634300081b0033",
  "linkReferences": {},
  "deployedLinkReferences": {}
}